:040000006F00D006B7
:1000040000000000000000006F0080086F00803FC7
:1000140000000000000000000000000000000000DC
:1000240000000000000000000000000000000000CC
:100034006F004006000000006F00E00500000000B3
:100044006F0080056F0060056F0040056F0020059C
:100054006F0000056F00E0046F0040060000000020
:100064006F0060046F0040046F0020046F00000400
:100074006F00E0036F00C003000000006F00600326
:100084006F0040036F0020036F0000036F00E00265
:1000940001A001A001A001A001A001A001A001A054
:1000A40001A001A001A001A001A001A001A001A044
:1000B40001A001A001A001A001A001A0B7870040F8
:1000C40003C76700098B6303070E03C77700930612
:1000D4000003137707036301D70803C85184138609
:1000E40081830547B30606012380E60083C57700B4
:1000F40013870184429793F5F50F2300B70003C5D6
:1001040087009385C183C2951375F50F2380A500DD
:100114000347070089451377F703630EB70A63E9BA
:10012400E508630007188545630AB71083C751843F
:100134003307F600034707001377F70F09CB85074A
:1001440093F7F70F0D47636FF716A382F184B78710
:10015400004009472383E700B787004083C777003F
:10016400E207E18763D4070483C75184138781833B
:100174003E9785462300D700138701843E97930654
:1001840000032300D7001387C1833E97A146850748
:100194002300D70093F7F70F0D476368F712A38284
:1001A400F184B787004009472383E70073002030B8
:1001B400930610026308D70C930620026301D70646
:1001C40093060002E314D7F603C727021377C70F79
:1001D40013672700D5A003C767001377070465C317
:1001E40003C7A7021388C19A1385C192134707084E
:1001F4002385E70203C7A7021377370F1367870026
:100204002385E702814713070004B305F5008C41F9
:10021400B306F80091078CC2E399E7FE01BF03C758
:10022400A702134707042385E70203C7A70213772E
:10023400C70F136727002385E702CDBD03C76700F7
:10024400137707042DCF03C767021388C18E138564
:10025400C18A134707082383E70203C7670213779A
:10026400370F136787002383E702814713070004CE
:10027400B305F5008C41B306F80091078CC2E399ED
:10028400E7FE6DB503C76702134707042383E7023C
:1002940003C767021377C70F136727002383E70297
:1002A40071B503C767001377070411CB03C727028F
:1002B4001377370F136787002381E70285BD2380F7
:1002C4000600ADB5A382018459B5A3820184D1BDD2
:1002D400B7170040930670052380D704130780FAEC
:1002E4002380E70403C6B7041376F60DA385C70479
:1002F40023800704137605022DC603C6A700118ABE
:100304000DE22380D7042380E70403C7A700136703
:1003140047002385E7009307004B01000100FD1708
:10032400EDFFB7170040930670052380D704130729
:1003340080FA2380E7047D892394A700010001004B
:1003440001000100238007042380D7042380E704ED
:100354009306100537270040A303D78023800704A2
:100364008280137605046DDE03C6A700418A0DE280
:100374002380D7042380E70403C7A700136707017A
:100384002385E7009307007D01000100FD17EDFFC1
:10039400B7170040930670052380D704130780FA2B
:1003A4007D892380E704136505042394A7000100D5
:1003B400010001000100238007042380D704238067
:1003C400E704930630053727004079B74111814689
:1003D40001468145114506C6B12AB71700401307E7
:1003E40070052380E704130780FA2380E70403C71A
:1003F4006704136717002383E70423800704B240CC
:100404004101828081460146814511452522B71765
:100414000040930670052380D704130780FA2380D5
:10042400E7047D562396C7022380D7042380E7047C
:1004340003C76704136717002383E70423800704B3
:1004440001A0BD473305F50201007D1575FD8280CD
:10045400411122C426C206C6AA840144631794002B
:10046400B240224492444101828005041305803E37
:100474004204C13F4180DDB72303048015472303B1
:10048400E48001002302A480828083076480E3CE99
:1004940007FE23030480828083076480E3CE07FE83
:1004A40003454480828083076480E3CE07FE2302F1
:1004B400A4808280411126C44AC24EC006C6137766
:1004C400F50BAD47AA892E8995446306F7001945B3
:1004D4006537653F8D444E854537FD59FD14639856
:1004E4003401B240A2441249824941018280135529
:1004F40009011375F50F453F2209CDB7011126CC2B
:1005040006CEB704080051371545BD377137693732
:100514002AC6A53F32459377150089EB136515006C
:100524001375F50FF240E24405618280FD14E9FC85
:100534000145CDBF397126DC4ADA4ED852D656D49D
:100544005AD25ED006DE62CE66CCB7E700E07D57B5
:1005540083AA070022C603AA470023A0E71823A200
:10056400E718B7170040130770052380E704130743
:1005740080FA2380E70483C74704930B75FFB6848E
:10058400E20793FBFB0F8546AA892E8B3289372419
:100594000040E187015763FA76016308D500894674
:1005A400130700026313D5000157D98F93F7F70F90
:1005B400B71C00402382FC0411472303E480130585
:1005C400F00F5D3D094CD13563697C11B707070015
:1005D4003E9B378707007955637EEB02B3079B0088
:1005E400636AF702A9476399F90689E48144713D76
:1005F40026850DA0DA850945753D05090345F9FFF2
:10060400FD14050B4D3581C49377FB0FFDF7FD35C4
:1006140069FD7D55B7170040130770052380E70473
:10062400130780FA2380E70403C74704418B23821E
:10063400E704F250B7E700E023A0571123A24711C3
:10064400E25432445259C259325AA25A125B825B62
:10065400724CE24C21618280A5476395F906856955
:100664001309F00FB3069900B3742B01B694134920
:10067400F9FFB3749900856B33796901416B9387F2
:10068400F9FFB3F7270199E363FC340193D94900D7
:10069400C147E3E637FF99BF0569C1697D19D9B739
:1006A4001305800D638869011305000263847901D1
:1006B40013051008CA85FD3B913521DD4E99B3849D
:1006C4003441D9B7DA852D45F533CA94E30099F25C
:1006D4000509D933A30FA9FED5BF9387F9FF93F773
:1006E400F70F636CFC0803C75C04B70708001377B3
:1006F400070219E3B78707007955E37DFBF0330759
:100704009B00E3E9E7F089476390F9048980D549C0
:10071400E38E04ECDA850945713B11090327C9FF0F
:1007240091472320E48003076480E34E07FE2303FC
:100734003481FD17EDFBFD14110B81C49377FB0F7E
:10074400E9FF6D3B71F5F1B58547E387F9F4DA8587
:100754002D458D339389F4FFE38A04E8353B93F701
:10076400390091EB8326048003270900930749008D
:10077400E39FE6E63E89CE84F1BFB5476396F90070
:100784001305900BD5399DB5B1471305B00AE38B1A
:10079400F9FE9947639EF902DA852D45213B814490
:1007A4008D4BA149D5396396740183270480232096
:1007B400F9008504E39834FF8327048013172B0181
:1007C400635507002312F90015B52322F90039BD3A
:1007D4009D476399F90281451305B004E139BD448D
:1007E4002320090023220900FD597D3193F7740069
:1007F400CA9703C70700FD14398D2380A700E39629
:1008040034FFEDB3A1476392F904CD398144630DFC
:100814000B008D479304C0036308FB009304000599
:1008240063048B01930440041375C507E30095DC4E
:10083400194599319939054581312685AD310945E7
:100844009D316D39E31405DAE9B391476399F900F1
:1008540013056006153115391305900925B7E3878B
:0808640009D8F15469B300004A
:10086C00974100209381C105177100201301C178B5
:10087C001305400097350020938505F817360020A6
:10088C001306067E63FAC5008322050023A05500DB
:10089C0011059105E3EAC5FE17350000130545A5C2
:1008AC00973500209385C57B1386818063FAC5003C
:1008BC008322050023A0550011059105E3EAC5FE2E
:1008CC0013858180938501B76377B50023200500DC
:1008DC001105E36DB5FE9302800873A002309732C8
:1008EC000020938262F193E21200739052309712BF
:1008FC0000009382221373901234730020303D4316
:10090C002A876373C3029377F700BDEFADE5937647
:10091C0006FF3D8ABA960CC34CC30CC74CC74107A3
:10092C00E36BD7FE11E28280B306C3408A069702BE
:10093C00000096966780A6002307B700A306B700B1
:10094C002306B700A305B7002305B700A304B7001F
:10095C002304B700A303B7002303B700A302B70017
:10096C002302B700A301B7002301B700A300B7000F
:10097C002300B700828093F5F50F93968500D58DF3
:10098C0093960501D58D61B79396270097020000C9
:10099C0096968682E78086FA9680C1171D8F3E96C2
:1009AC00E374C3F8A5B7B7E700E0B843C146B4C3D6
:1009BC00B706400023A0D718B8C3010001008280FD
:1009CC00138641858147B2861303F00FA94833087B
:1009DC00F6000348080013F7F70F6309A80A63062B
:1009EC0068008507E39517FF2947B387E600238046
:1009FC00A7009387018669A8411113D76500134797
:100A0C00170006C693F63500058B954791CA054627
:100A1C0099476387C60009469D476383C600A14773
:100A2C0013F645003336C00093F68503050685C2E0
:100A3C00A1456381B604E1456380B6049305800249
:100A4C00638EB602930580036393B60091462383AD
:100A5C00F1822382C182A382D182BE851725000038
:100A6C001305C556EF106021B2408547A383F18270
:100A7C00410182808546E1BF8946D1BF8D46C1BF09
:100A8C0017250000130505576F10201F13870186CB
:100A9C00BA972380B700E147E300F5F6930770029D
:100AAC00E300F5FE82802A872380050081471385A9
:100ABC0041851308F00F2946B306F50083C60600DE
:100ACC006394E60293860186B69783C707000545B3
:100ADC002380F5009947636EF7029D4763FDE7009D
:100AEC00E147630DF7008280638506018507E39576
:100AFC00C7FC0145C5B7238005008280B73700408D
:100B0C0003C7370083C7050093F70704D98F2380E9
:100B1C00F5008280797126D24AD083C4418413892E
:100B2C00818306D622D44ECE52CC56CA5AC8B307AD
:100B3C00990083C7070093F7F70FA9CF9387140089
:100B4C0093F7F70F0D476362F70A2382F1849387BB
:100B5C000184A69783C707001307100293F7F703C6
:100B6C006382E7206366F7080544638A8718E3818C
:100B7C00073C09476388E71013070002E380E72E60
:100B8C001D35CA9423800400B7E700E03707400006
:100B9C0023A0E710B787004003C76700058BE30469
:100BAC00074283C661840547E391E64029472381C8
:100BBC00E70209472383E7022385E702A384018226
:100BCC00A3830184B7870040A3810700A386018219
:100BDC0005472383E700B250225492540259F2493C
:100BEC00624AD24A424B456182802382018485B796
:100BFC00130730026384E70863EFE70E1307400224
:100C0C00638AE70613070003E39CE7F69387C18327
:100C1C00A69703C70700A1471377F70F631AF77C52
:100C2C00138AC18683476A00238AF18083C7318780
:100C3C0081C7FD57238AF18083C5D186A38AB180F1
:100C4C0083C7C18693F907089306000493F7070638
:100C5C006397D7449307A0096389F51463E8B71029
:100C6C009307F0056382F542930750096382F526DA
:100C7C0001444DA1FD572389F18019B7FD572388F5
:100C8C00F180FDBD1725000013050547EF10A013DB
:100C9C009387C183A69703C407008149138AC19A1D
:100CAC001374F40F972A0000938A8A4563CC890247
:100CBC002945EF10C00085472387F1802384F182FA
:100CCC00A3878180CD31378700408347A70293F7F4
:100CDC00370F2305F702B7E700E03707400023A0E2
:100CEC00E71079BDB3073A0183C50700568585091E
:100CFC00EF00B07865BF8547A386F18051B5172505
:100D0C0000001305653FEF10000C9387C183A69775
:100D1C0003C407008149138AC18E1374F40F972AF8
:100D2C000000938AEA3D63C689022945EF003079B9
:100D3C008547A385F1802384F18223868180A531A8
:100D4C00378700408347670293F7370F2303F70277
:100D5C0059B7B3073A0183C5070056858509EF00DB
:100D6C00D071D1B785472385F18019BD9307400A0F
:100D7C00638DF52E9307200B6384F5309307100ACF
:100D8C00E398F5EE83072A00014463D5073883C73F
:100D9C00F18693F63700638C061605466382C61EF1
:100DAC0009466397C6161D47A5A203C5E186C94728
:100DBC0003CAF18683C5018703C411876315F51037
:100DCC00CD476312FA10930770086398F502130766
:100DDC00300FB7170E006308E4001307900DB7B778
:100DEC0004006310E40823A0F182BE8517250000DF
:100DFC0013058531EF007068A5BD93078008639DCE
:100E0C00F50033048040B77746001374F40F9387D2
:100E1C0087CDB3D78702C1BF93079008639AF500BB
:100E2C003304804091671374F40F9387C766D5B76A
:100E3C009307A008639BF50033048040B7173D006F
:100E4C001374F40F93870790E9B79307B008639A6C
:100E5C00F5003304804091671374F40F938797D097
:100E6C004DBF93F5F5078D47639BF5003304804028
:100E7C00B7975B001374F40F938707D859BF894752
:100E8C00639BF50033048040B7770B001374F40FA9
:100E9C009387071BBDBF8547639AF50033048040D9
:100EAC00DD671374F40F938767E3A5B789E93304FF
:100EBC0080408D671374F40F938777DC99BFF167CB
:100ECC00938707200DB7ED3CA2855285D53C4DB3D9
:100EDC009305610003C5E18603C4F186E9369305E9
:100EEC0071002285C9363C0023AAF1828347610038
:100EFC002304F10083477100A304F1008947238A7E
:100F0C00F180835781002396F186094421A415476B
:100F1C0093F64700B336D00093F78703850685C355
:100F2C0021466381C70661466380C70613068002AB
:100F3C00638EC704130680036393C7009147238213
:100F4C00D182A382F1822383E18203C70187937646
:100F5C00070483C711878DEE1377770C93067008FF
:100F6C00630CD7021377F7078D46631CD70AB307B8
:100F7C00F040B7955B0093F7F70F938505D881A8E0
:100F8C00194779B7854765BF894755BF8D4745BF19
:100F9C00930670086311D7021307300FB7150E00B4
:100FAC006389E7021307900DB7B504006383E7026A
:100FBC001307700845BF9306800C631FD700B30757
:100FCC00F040B775460093F7F70F938585CDB3D5F1
:100FDC00F50223A0B18219BD9306900C631AD700B9
:100FEC00B307F040916593F7F70F9385C566C5B7C6
:100FFC009306A00C631BD700B307F040B7153D0058
:10100C0093F7F70F93850590D9B79306B00CE31BB4
:10101C00D7F4B307F040916593F7F70F938595D00C
:10102C007DB78946631BD700B307F040B7750B003B
:10103C0093F7F70F9385051B59BF8546631AD700A5
:10104C00B307F040DD6593F7F70F938565E341B780
:10105C0009EBB307F0408D6593F7F70F938575DCBB
:10106C00BDB7F16593850520ADB783472A00C18BC9
:10107C0089C78547238DF180E5BE238D0180CDBEC8
:10108C008547A383F182EDB63C0023AAF182094780
:10109C00930700032314F100238AE180ADB563901C
:1010AC000746A94763E6B73417270000130747EF35
:1010BC008A05BA959C41BA97828703C4F186094A7E
:1010CC00630C440B63668A0685476301F408930737
:1010DC00F00F03C7418163F4E700238AF18003CA50
:1010EC004181930700041374FA0F63F4470113044E
:1010FC0000049387418383AA070022861385C18647
:10110C00D685330A8A40A29AEF00D02B238A4181DC
:10111C0023AA518383C7518115476398E74CEFF09D
:10112C009F88B787004023808702130780FCD1ACCF
:10113C008D476306F4089947E31BF4F897270000E2
:10114C00938787EC23AAF182A94761B703C761840F
:10115C009387C1A64946972500009385A5F363069E
:10116C00870097250000938525EF3E85EF0090259D
:10117C0023AAA182C947B1BF83C66184054793875F
:10118C00C1A66390E6023E85130670029725000007
:10119C009385C5EDEF00102323AAA182930770025B
:1011AC000DBF3E851306300497250000938585E618
:1011BC00EF00502123AAA1829307300419BF83C5E5
:1011CC00E18617250000130565F5EF00102B854A05
:1011DC0003CB618483C5E18617250000130505F454
:1011EC0063165B09EF00702983C7E186B1CFE3601A
:1011FC00F4EE172400001304E40E638C670117242B
:10120C0000001304E4EC6386470117240000130468
:10121C00A4ED2285EF00103C1375F50F9307150014
:10122C0086072386F1A68D47A386F1A69387C1A6D0
:10123C000147BE861376F70F8907636FA60023AAB2
:10124C00D18283C7C1A671B5972700009387C708C1
:10125C0023AAF1829147B5BD3306E400034606008C
:10126C00A380070005072380C700E9B7EF00F02033
:10127C0083C7E186F1DBE36CF4E41724000013046C
:10128C00E405638C5701172400001304E4E1638622
:10129C004701172400001304A4E22285EF009033C9
:1012AC001375F50F9307150086072386F1A68D4756
:1012BC00A386F1A69387C1A60147BE861376F70FC6
:1012CC008907E37EA6F63306E40003460600A380F6
:1012DC00070005072380C700D5B783C5E18617250E
:1012EC000000130565E4EF00501983C7118393E7E1
:1012FC004700A388F18283472A00A386F1826FF00E
:10130C003F9717250000130565E3EF00D02B93875B
:10131C00C18283C707002386F18603C4418133341D
:10132C008000CDBB17250000130585E2EF00B02926
:10133C0083C7118393E70701A388F18283472A00AF
:10134C002386F1826FF0DF9217250000130585E1EB
:10135C00EF00702703470A007D8B35EBB787004001
:10136C0003C767021377C70B136727002383E702B2
:10137C0003C7A7021377C70B136727002385E70260
:10138C0003C7E7021377C70B136727002387E7020E
:10139C0003C727031377C70B136727002389E702BB
:1013AC0085472385F180A386F1802388F1802389EA
:1013BC00F180A385018023870180A3880180A38904
:1013CC000180A3840182A38301846FF07F8A894703
:1013DC006310F70283C7018791466382D70863E6DF
:1013EC00F6026384E70C636FF70805476386E70C26
:1013FC00FD57A38AF180EFF00FDBB787004013078E
:10140C00F0FC2381E7026FF01F8D13072008638225
:10141C00E7086362F70213071008E39BE7FC3787C2
:10142C0000408347670293F7C70B93E7270023031A
:10143C00F7026FF0FF83130730086389E702130785
:10144C004008E397E7FA378700408347270393F771
:10145C00C70B93E727002309F7026FF07F813787CB
:10146C0000408347270393F73707F5B737870040CA
:10147C008347E70293F7C70B93E727002307F7028D
:10148C006FF00FFF378700408347E70293F737076A
:10149C00F5B7378700408347A70293F7C70B93E74D
:1014AC0027002305F7026FF0AFFC37870040834716
:1014BC00A70293F73707F5B73787004083476702D2
:1014CC0093F73707ADB7172500001305A5CAEF0032
:1014DC00900F2386018691B517250000130585CA48
:1014EC00EF00700E239601869387418103C4070099
:1014FC00894763F3870009441374F40F21B9130768
:10150C000002E397E7EE63950908638DF5009307F6
:10151C0020026383F50617250000130565CAEF004A
:10152C00C075F9B517250000130585C6EF00B00985
:10153C000144172B0000130BEBC6A14AB3078A001A
:10154C0083C507005A850504EF002073E31854FF88
:10155C0017250000130585C5EF00F00603C40187AD
:10156C0001E4A38401807DB68947E313F4E8854741
:10157C00A384F1806FF0CFEF03C6F18683C5E186BB
:10158C00172500001305C5C2EF00206F6FF04FEE5A
:10159C00638FF50293071002E39FF5F683C501876D
:1015AC00172500001305C5C2EF00206D23AA418347
:1015BC0093870182944383D7470003C7618223A694
:1015CC00D1861D442398F1862389E186A1B683C573
:1015DC00018717250000130525C1EF00006AA384BD
:1015EC000180239601866FF05F922547E389E7B26D
:1015FC001947639EE700B789004023808902EFF00A
:10160C008FBA930700FC2381F9026FF0CFEC13071C
:10161C00100A639BE700B789004023808902EFF032
:10162C008FB8930780FCC5B71307A009E385E7FEC5
:10163C001307400AE381E7FE13072002E381E7AEBC
:10164C000547E38EE7ACE39C09ACEFF0CFB5B78769
:10165C00004023808702130720FC65B303C7518128
:10166C00630EF71263EDE70095476303F70A99479A
:10167C006308F70237840040230004026DA093072F
:10168C00F005630AF700930750096306F700930708
:10169C001002E311F7FEEFF00FB1B787004065BF02
:1016AC0083C9418193070004CE8A63F43701930AFE
:1016BC0000049387418303AA070013F4FA0F2286D0
:1016CC00D2851385C186FD29B38789405294238A1C
:1016DC00F18023AA818237840040638409022300AD
:1016EC005403EFF04FAC8347240293C70704230144
:1016FC00F4028347240293F7C70F2301F4026FF01F
:10170C008FDD23000402EFF00FAA930720FCF5B73E
:10171C00378400408347340003C7D18293F707080E
:10172C00D98FA301F400EFF00FA89307A0FCF1B739
:10173C009387C183A69783C7070093F7F70FB9CF99
:10174C0083C76184A1EF03C751819307000263171C
:10175C00F7049387C18603AB070083CA018703CACA
:10176C00118783C92187D2875687CE865A8683C52F
:10177C009180172500001305A5A8012323A06183E0
:10178C0023825183A38241832383318323848180E9
:10179C00EFF06FA1B78700406FF03F99EFF0AFA06B
:1017AC00B78700401307A0FCA9B929472381E7029A
:1017BC0009472383E7022385E7022387E70223896E
:1017CC00E7026FF0AFBF03C76700118B630507C05B
:1017DC0083C75700918BA1C703C761848547631DDD
:1017EC00F702A383E18223850180A38601802388ED
:1017FC00018023890180A385018023870180A38830
:10180C000180A3890180A3840182A3830184B7870B
:10181C00004011476FF0EFBB2384F180E9B7854797
:10182C002385F180A386F1802388F1802389F180C0
:10183C00D9B785472385F180A386F1802388F18071
:10184C002389F180A385018023870180A3880180EF
:10185C00A38901808280411106C6E13FB787004011
:10186C0023800700130740FC2386E7001307C004FE
:10187C00A386E7001387C1862398E7001387C18AE4
:10188C00239AE7001387C192239CE7001387C19E1C
:10189C00239EE70029472381E70209472383E702B8
:1018AC002385E7022387E7022389E702A381070048
:1018BC00930600F8A380D700930690022380D700EC
:1018CC00FD562383D7002381E700B706400037E796
:1018DC0000E02320D71003C7170013671700A3805D
:1018EC00E700B2402396018241018280411106C675
:1018FC008937B787004023800700130700FC238635
:10190C00E7003147A386E7001387C1862398E700D9
:10191C001387C18A239AE7001387C192239CE7009F
:10192C0029472381E70209472383E7022385E7023E
:10193C00A3810700930600F8A380D70093069002BA
:10194C002380D700FD562383D7002381E700B706F9
:10195C00400037E700E02320D71003C717001367B8
:10196C001700A380E700B2402396018241018280D8
:10197C00F1679387072023A0F18285472392F18298
:10198C00A1472383F182A383018223840182A38450
:10199C00018023840180814713854185FD55138681
:1019AC0001862947B306F5002380B600B306F6007E
:1019BC00238006008507E397E7FE238C0182A38C26
:1019CC000182238D0182A38B0180A38D0180238C46
:1019DC000180238B0180238E0180A38C0180238DB9
:1019EC000180A38D0182828003C7618485476313C4
:1019FC00F700EDBD8DB5371700408327870A4111DD
:101A0C0006C693E707202324F70A85451305001023
:101A1C0089208D45130500202D28B240410195AA3F
:101A2C0041111305800406C697200020E780C009E9
:101A3C00D937171500001305A57E7126153F6D3794
:101A4C00B7E700E03707400023A0E710EFF08F8CDA
:101A5C00F5BF914763EEB702171700001307C77C59
:101A6C008A05BA959C41BA978287B717004003A79D
:101A7C00470B1345F5FF698F23AAE70A03A7070B4A
:101A8C00698F23A8E70A03A7070A798D23A0A70A61
:101A9C008280B717004083A6470B1347F5FFF98EDA
:101AAC0023AAD70A83A6070B558D23A8A70A83A6BA
:101ABC00070A758F23A0E70A8280B717004003A797
:101ACC00470B498F23AAE70A03A7070B1345F5FF1A
:101ADC0045BFB717004083A6470B1347F5FF758F1B
:101AEC0023AAE70A03A7070A598D4DB7B717004079
:101AFC0003A7470B498FEDB7B717004003D58700F5
:101B0C00420541819377050491EB9377F5013755A5
:101B1C00E801130505803345F50282809377050CA7
:101B2C00130700046397E7009377F50137459C1C76
:101B3C00CDB72165130505D082808147373700402A
:101B4C00A14663C4C700328582800345B740E38E4B
:101B5C00A6FE3385F5000345050085072304A74041
:101B6C00CDB7411122C406C62A8479372947B30759
:101B7C00E502B2408D83B3D7870222449507B3D7D1
:101B8C00E70237370040C207C1832316F7404101F3
:101B9C008280716541111305052006C6D937B73708
:101BAC000040130770F82381E7400D47A381E740FD
:101BBC0013070004A380E74005472387E740B240A2
:101BCC0041018280B3C7A5008D8B3307C50081E727
:101BDC008D4763EEC700AA876370E50A83C60500CC
:101BEC0085078505A38FD7FEE3EAE7FE828093760F
:101BFC003500AA8791CA83C6050085078505A38F82
:101C0C00D7FE93F63700FDB79376C7FF138606FE13
:101C1C0063F0C70683A3050083A2450083AF85004C
:101C2C0003AFC50083AE050103AE450103A38501D7
:101C3C0083A8C5019385450223A0770003A8C5FF9F
:101C4C0023A2570023A4F70123A6E70123A8D70159
:101C5C0023AAC70123AC670023AE17019387470261
:101C6C0023AE07FF75B790419107910523AEC7FED0
:101C7C00E3EBD7FEE3E4E7F6828039713EDA2ED24D
:101C8C0032D436D63AD842DC46DE972700209387EA
:101C9C00274322CC804326CA06CEAA8409C41C4CF6
:101CAC0099E32285B5230C4454102686228536C62A
:101CBC00EF00B01BF2406244D244216182800111DA
:101CCC00972700209387C73F22CC804306CEAA8556
:101CDC0019C41C4C89E72AC622851D2BB245104419
:101CEC0022856244F24005616F00107D011126CA05
:101CFC004AC806CE22CC4EC652C4AA842E8901C52F
:101D0C001C4D91E331239C4C804499E32685092397
:101D1C009717000093878754631CF402C0408357C5
:101D2C00C400A18BB1C71C48A1C7FD59294A1C444A
:101D3C0083450900FD17B1E91CC463DE0706228642
:101D4C00A94526854D20FD576308F502294535A088
:101D5C0097170000938787526314F4008044C1B72F
:101D6C00971700009387874DE31BF4FAC04445BFD7
:101D7C00A28526850D2A55D97D55F2406244D24460
:101D8C004249B249224A056182801CC4050963D7C5
:101D9C000700184C63CBE700638945011C4013878F
:101DAC00170018C02380B70059B72286268525282E
:101DBC00E31F35F7D1B71C401387170018C029470C
:101DCC002380E70061B7972700209387672FAA85A8
:101DDC00884329BFAA87850703C7F7FF6DFF3385A3
:101DEC00A7407D158280011122CC26CA4AC806CE96
:101DFC004EC6AA842E89328401C51C4D91E3092953
:101E0C0097170000938787456319F406C0401C4C54
:101E1C001CC48357C400A18BC9C31C48BDCF1C482C
:101E2C0008409379F90F1379F90F1D8D5C486346BF
:101E3C00F500A2852685752C2DE51C440505FD179E
:101E4C001CC41C401387170018C0238037015C4842
:101E5C006389A7008357C400858B81CBA947631680
:101E6C00F900A285268571240DEDF24062444A8565
:101E7C00D2444249B249056182809717000093878A
:101E8C00E73F6314F400804459B797170000938719
:101E9C00E73AE31EF4F6C0449DBFA28526852120B7
:101EAC003DDD7D59D9B741119727002093874721F4
:101EBC0026C2844322C44AC006C62A892E8489C4F9
:101ECC009C4C99E32685A926971700009387073920
:101EDC00631CF402C0400317C40093170701C183AD
:101EEC0093F68700B5EE93F607019DEEA5472320E8
:101EFC00F900136707042316E4007D55B240224411
:101F0C00924402494101828097170000938707375A
:101F1C006314F4008044C1B797170000938707320D
:101F2C00E31BF4FAC04445BF918B8DC74C5889C94B
:101F3C00930744046384F5004A859123232A040201
:101F4C008357C4002322040093F7B7FD2316F40033
:101F5C001C481CC08357C40093E787002316F40069
:101F6C001C4881EF8357C4001307002093F7072800
:101F7C006385E700A2854A85A5218357C40013F722
:101F8C00170005C75C4823240400B307F0401CCCA1
:101F9C001C480145A5F78317C40013F7070839DF60
:101FAC0093E707042316F40089BF898B014791E35B
:101FBC00584818C4F1BF83D7C500011122CC26CADA
:101FCC0006CE4AC84EC613F78700AA842E8471EF3A
:101FDC00D841634DE000B841634AE0000145F2404E
:101FEC006244D2444249B2490561828058547DD73B
:101FFC0003A904009396370123A0040063DD0606B1
:10200C0070488357C400918B99C75C401D8E5C58F7
:10201C0099C33C401D8E5C540C508146268582979A
:10202C00FD570357C400631DF5009440F54763E862
:10203C00D706B70740208507B3D7D700858BA5C334
:10204C001C48232204001CC09317370163D80700D7
:10205C00FD576314F5009C4091E368C84C5823A0CD
:10206C002401ADDD930744046384F5002685012922
:10207C00232A0402A5B70C500146854626850297F3
:10208C00FD572A86E31FF5F69C40A5DF754763854F
:10209C00E70059476394E70423A0240181B7136731
:1020AC0007042316E4007D551DBF83A90501E387B2
:1020BC0009F203A905008D8B23A0350133093941A1
:1020CC00014791E3D84918C4E35A20F11C540C5031
:1020DC00CA864E86268582976349A0008357C40022
:1020EC0093E707042316F4007DBFAA993309A9408E
:1020FC00E1BF9C49B9CF011122CC06CE2A8411C56F
:10210C001C4D81E72EC62922B245971700009387F4
:10211C00E714639BF5004C408397C50095C7228557
:10212C006244F240056141BD971700009387071583
:10213C006394F5000C44CDB79717000093870710F4
:10214C00E39CF5FC4C44C9BFF24062440145056177
:10215C00828001458280411122C406C62A8423163E
:10216C00B5002317C50023200500232205002324D6
:10217C0005002322050623280500232A0500232C0D
:10218C000500214681451305C505EFE04FF797176C
:10219C000000938787BD5CD0971700009387E7BF3B
:1021AC001CD497170000938727C45CD497170000A2
:1021BC009387E7C600D01CD8B240224441018280EC
:1021CC0097050000938525F389AA411126C21306B1
:1021DC0080069384F5FFB384C4024AC02E8922C4BE
:1021EC0006C69385440781262A8401CD2320050049
:1021FC0023222501310508C4138684068145EFE0AE
:10220C000FF02285B240224492440249410182805F
:10221C001C4DBDE3411106C622C4970700009387ED
:10222C0067FA1CD5971700009387470C9C4323240F
:10223C00050423260504232805046314F5008547AB
:10224C001CCD2A841D2848C02285052808C4228557
:10225C002D2048C4484001469145F53D08440546AB
:10226C00A545D53D48440946C945F53585471CCC9F
:10227C00B2402244410182808280411197170000B4
:10228C009387C70626C284434AC006C69C4C22C408
:10229C002A8999E32685AD3F938484048044DC40ED
:1022AC00FD1763D607009C40B9CF8440C5BF031708
:1022BC00C40039E7C17785072322040623200400D4
:1022CC0023220400232404005CC423280400232AB2
:1022DC000400232C0400214681451305C405EFE0BE
:1022EC000FE2232A0402232C0402232404042326B1
:1022FC0004042285B2402244924402494101828066
:10230C001304840671BF91454A85C13588C051FDBF
:10231C00B1472320F9000144E9BF797122D44AD096
:10232C0052CC56CA5AC85EC606D626D24ECE2A8A79
:10233C00AE8A130485040149054BFD5B09ECB250D0
:10234C0022544A8592540259F249624AD24A424B6B
:10235C00B24B45618280044483294400FD1963D447
:10236C0009000040E1BF83D7C400637BFB00839767
:10237C00E40063877701A6855285829A3369A900A8
:10238C0093848406E1BF1971A6DAAE848395E500C7
:10239C00A2DC86DE328463DC050083D7C40023A074
:1023AC00060093F7070885E7930700401DA0300847
:1023BC0036C6EF00502CB246E34105FE7247BD67AE
:1023CC00F98F7977BA9793B717009CC2F1BF93072F
:1023DC0000041CC0F6506654D65401450961828035
:1023EC0083D7C500011122CC06CE26CA4AC8898BD8
:1023FC002E8489CF930774041CC01CC885475CC805
:10240C00F2406244D244424905618280740030003B
:10241C00AA84953FA2452A892685312201ED83178E
:10242C00C40013F7072069FFF19B93E727002316DD
:10243C00F400C9B7970700009387C7D89CD483577B
:10244C00C40008C008C893E707082316F400A24785
:10245C005CC8B24791CF8315E4002685EF00502469
:10246C0001C98357C400F19B93E717002316F400AE
:10247C008357C4003369F9002316240151B7DDC119
:10248C0083A7C5FF411122C406C626C21384C5FF0B
:10249C0063D307003E94AA84EF007027938781844E
:1024AC009C4381EF2322040023A481842244B24064
:1024BC002685924441016F00B025637EF4001440E0
:1024CC003307D4006396E7009843DC43369718C073
:1024DC005CC0D9BFBA87D84319C3E37DE4FE9443EB
:1024EC003386D700631F86001040B29694C33386A0
:1024FC00D700E31DC7FA10435843B29694C3D8C310
:10250C0075B76375C400B1479CC04DB71040B30696
:10251C00C4006316D70014435843B29614C058C075
:10252C00C0C369B78280011126CA93843500F19823
:10253C0006CE22CC4AC84EC6A104B14763F5F404BA
:10254C00B14463E4B4042A89EF00701C938781843E
:10255C0098433A8429E49387C1849C4399E7814545
:10256C004A85EF00C07D23A6A184A6854A85EF008D
:10257C00007DFD5963193507B1472320F9004A85C1
:10258C00EF00101929A0E3DE04FAB1471CC1014584
:10259C00F2406244D2444249B249056182801C40F7
:1025AC00858F63CF0702AD4663F6F6001CC03E94E0
:1025BC0004C031A05C406313870223A4F1844A85D4
:1025CC00EF0010151305B40093074400619933070D
:1025DC00F5405DDF3A94898F1CC05DBF5CC3C5B705
:1025EC002287404085BF130435007198E30285FCB7
:1025FC00B305A4404A85A127E31C35FBB5BF1C4697
:10260C00FD171CC663DA0700184E63C5E700A9471F
:10261C006394F5006FF02FFD1C422E851387170075
:10262C0018C22380B7008280011122CC26CA4AC866
:10263C004EC652C406CE2A89AE893284B304D60063
:10264C007D5A63149400014509A8834504004E8605
:10265C004A8575370504E31645FFF2406244D244BF
:10266C004249B249224A05618280357122CD26CB7E
:10267C004AC94EC706CF52C556C35AC1DEDEE2DC8C
:10268C00E6DAAA89AE843289368401C51C4D91E301
:10269C00413697170000938767BC639CF40C83A4A6
:1026AC00490083D7C400A18BFDC79C48EDC7930795
:1026BC000002A304F1029307000302D22305F102E6
:1026CC0022C6930B5002971A0000938A2ABD054C20
:1026DC00294B4A848347040099C36391770FB30C49
:1026EC002441638D0C00E6864A86A6854E852D3FD7
:1026FC00FD576307F51E9256E69636D283470400C3
:10270C006380071EFD571309140002C802CE3ECA8F
:10271C0002CCA309010482D48345090015465685D1
:10272C00EF00407D13041900C24759E913F7070164
:10273C0009C713070002A309E10413F7870009C7AF
:10274C001307B002A309E104834609001307A00292
:10275C006380E608F2474A84814625460347040015
:10276C0093051400130707FD6379E60AB5CA3ECE3C
:10277C0085A897170000938767B06395F40083A42E
:10278C00890005B797170000938747ABE39BF4F0DC
:10279C0083A4C90039B7A6854E85EFF0CFF001D9D7
:1027AC007D55FA406A44DA444A49BA492A4A9A4A57
:1027BC000A4BF65B665CD65C0D618280050419BF22
:1027CC00330555413315AC00C98F3EC82289A9B7D2
:1027DC00324793064700184336C6634907023ACE80
:1027EC00034704009307E002631FF7040347140038
:1027FC009307A002631BF702B24709041387470033
:10280C009C433AC663C107023ECA35A83307E04071
:10281C0093E727003ACE3EC8E1B7B38767038546F6
:10282C002E84BA9725BFFD57C5B7050402CA814649
:10283C00814725460347040093051400130707FD41
:10284C006376E606F1F2834504000D461715000089
:10285C00130545A5452511CD97170000938787A42F
:10286C001D8D93070004B397A700424505045D8DA9
:10287C002AC8834504001946171500001305C5A284
:10288C00130914002304B102B5253DC197D7FFFFEE
:10289C009387877695E74247B2471377071009CF9E
:1028AC0091073EC69257D2973ED225B5B3876703A0
:1028BC0085462E84BA97BDBF9D07E19BA107D5B76E
:1028CC00780097060000938666D626860C084E85FF
:1028DC0097000000E7000000FD572A8AE314F5FC7E
:1028EC0083D7C40093F70704E39C07EA125555BD40
:1028FC00780097060000938666D326860C084E85D2
:10290C00012AD9BF797156CA9C49BA8A984522D4F2
:10291C0026D24ECE52CC06D64AD05AC85EC6AA890A
:10292C002E84B284368A63D3E700BA879CC00347EF
:10293C00340419C385079CC01C4093F7070281C758
:10294C009C4089079CC00329040013796900631A11
:10295C000900130B9401FD5B5C449840998F634C08
:10296C00F9041C408346340493F70702B336D000B5
:10297C00A5EB13063404D2854E85829AFD5763036A
:10298C00F5041C4011469840998B5444814463973C
:10299C00C700B384E64063D3040081441C44184848
:1029AC006354F700998FBE94014969047D5B639869
:1029BC002405014509A885465A86D2854E85829AFA
:1029CC00631E75017D55B250225492540259F2493E
:1029DC00624AD24A424BB24B456182800509ADBF77
:1029EC003307D40013060003A301C70403475404A0
:1029FC0093871600A2978906A381E7049DBF85469D
:102A0C002286D2854E85829AE30E65FB050945B771
:102A1C00797122D426D24AD04ECE06D652CC56CA82
:102A2C005AC8B68983C68501930790063289AA8451
:102A3C002E8413863504638DF60263E2D706930762
:102A4C0080056387F61863EDD70063800622930731
:102A5C003004638EF60A930A24042301D404C9A01B
:102A6C00930730066385F60A93074006E395F6FE56
:102A7C001C40084393F6070893054500C5C61C4146
:102A8C000CC363D807001307D002B307F040A301AF
:102A9C00E404971600009386A68129476DA8930736
:102AAC0000076383F61663E5D7029307E006638A93
:102ABC00F6189307F006E390F6FA0C401C4313F853
:102ACC000508138547006307080608C39C438DA8B7
:102ADC0093075007E383F6FE93078007638AF61289
:102AEC0093073007E399F6F61C43D0418145938652
:102AFC00470014C383AA07005685ED2E01C5330584
:102B0C00554148C05C401CC8A301040471A81C4377
:102B1C00930A2404938647009C4314C32301F404B2
:102B2C008547D5B793F607041C410CC3B9DAC20725
:102B3C00C18781BF93F5050408C3C9D983D70700A2
:102B4C001307F0066387E60E970600009386467619
:102B5C002947A30104044C400CC463C5050008407C
:102B6C006D9908C099E3B28A91CDB28AB3F5E702A8
:102B7C00FD1AB69583C505002380BA00B3D5E702CC
:102B8C0063FFE70AA147631EF7001C40858B91CBBE
:102B9C0058401C4863C7E70093070003A38FFAFE55
:102BAC00FD1A3306564110C84E87CA867000A2859E
:102BBC002685893B7D5A631E450B7D55B2502254A8
:102BCC0092540259F249624AD24A424B4561828080
:102BDC00A382D504970600009386866D0C400843AB
:102BEC0013F805081C411105630D080208C313F7FF
:102BFC00150001C793E505020CC04147B9FB0C4019
:102C0C0093F5F5FD0CC0B1B79C4193E707029CC14D
:102C1C0093078007A302F404970600009386866A44
:102C2C0075BF13F8050408C3E30308FCC207C1838E
:102C3C007DBF970600009386A667214719BFAE8714
:102C4C0035B794411C43CC4913F80608138547004B
:102C5C006306080008C39C438CC301A808C393F601
:102C6C0006049C43F5DA2390B70023280400B28AAB
:102C7C0025BF14485686CA8526858299E30F45F3ED
:102C8C001C40898B8DE7B2474844E359F5F23E85E9
:102C9C0035B785465686CA8526858299E30F65F138
:102CAC00050A5C443247998FE345FAFEE9BF014AB5
:102CBC00930A94017D5BF5B7011122CC06CE2A84D0
:102CCC0009C91C4D99E732C62EC4EFF06FD43246B9
:102CDC00A24597070000938767586316F602504089
:102CEC001C46FD171CC663D00704184E63C7E700CB
:102CFC0093F7F50F29476398E70222856244F24067
:102D0C0005616FF04F8E9707000093872757631468
:102D1C00F6001044F1B79707000093872752E31190
:102D2C00F6FC504475BF1C4213F5F50F13871700C2
:102D3C0018C22380B700F2406244056182804111C1
:102D4C0022C42A842E8523A601B606C63D24FD572F
:102D5C006317F5009387C1B69C4391C31CC0B24066
:102D6C00224441018280411122C42E848395E500C6
:102D7C0006C64522634905007C48AA977CC8B24028
:102D8C002244410182808357C4007D777D17F98FDF
:102D9C002316F400EDB783D7C500011122CC26CA47
:102DAC004AC84EC606CE93F70710AA842E843289E1
:102DBC00B68991C78395E500894601463122835730
:102DCC00C4007D777D17F98F2316F4008315E4007A
:102DDC006244F240CE864A86B24942492685D244A4
:102DEC0005613DA8411122C42E848395E50006C6D9
:102DFC00E128FD570357C400631BF500FD77FD1751
:102E0C00F98F2316F400B240224441018280856779
:102E1C00D98F2316F40068C8FDB78395E50005A883
:102E2C00411122C42A842E85B285368623A601B68A
:102E3C0006C6EFE09FD0FD576317F5009387C1B628
:102E4C009C4391C31CC0B240224441018280411179
:102E5C0022C42A842E8523A601B606C6CD20FD5792
:102E6C006317F5009387C1B69C4391C31CC0B24055
:102E7C00224441018280411122C42A842E85B285CC
:102E8C0023A601B606C6D120FD576317F50093871C
:102E9C00C1B69C4391C31CC0B24022444101828004
:102EAC00411122C42A842E8523A601B606C66520AC
:102EBC00FD576317F5009387C1B69C4391C31CC0A3
:102ECC00B240224441018280411122C42A842E85C1
:102EDC00B285368623A601B606C66120FD57631758
:102EEC00F5009387C1B69C4391C31CC0B2402244E9
:102EFC004101828093F5F50F2A966314C5000145B4
:102F0C00828083470500E38DB7FE0505FDB78280FF
:102F1C008280411122C42A842E85B285368623A64E
:102F2C0001B606C6A920FD576317F5009387C1B6F5
:102F3C009C4391C31CC0B240224441018280930740
:102F4C00800523A6F1B67D5582809307800523A6C4
:102F5C00F1B67D5582809307800523A6F1B6014515
:102F6C0082809307800523A6F1B67D558280930756
:102F7C00800523A6F1B67D558280938701859C43FD
:102F8C0091C73E9523A8A1843E858280938701B783
:102F9C003E9523A8A1843E85828000003CE5FFFF7E
:102FAC00ACE3FFFF54E4FFFF54E4FFFF54E4FFFFE6
:102FBC003EE3FFFF1EE1FFFF54E4FFFF66E3FFFF6C
:102FCC0088E3FFFF2AE5FFFF434833343120736564
:102FDC007420706172613A25642025642025642078
:102FEC00627265616B3A253032780D0A0000000080
:102FFC006D6F64656D207365743A253032780D0AF7
:10300C00000000000A060002FF00FF400100000063
:10301C000902430002010080300904000001020291
:10302C0001000524001001042402020524060001FD
:10303C0005240101000705840308000109040100AF
:10304C00020A00000007050102400000070581028A
:10305C00400000001201100102000040861A40805E
:10306C000030010203010000090227000101008069
:10307C00300904000003FF01020007058202200052
:10308C00000705020220000007058103080001006B
:10309C0012011001FF000240861A23750031010253
:1030AC0003010000555342322E3020546F205365DB
:1030BC007269616C20506F72740000005743483184
:1030CC003231323132545331000000005553423208
:1030DC002E3020546F2053657269616C20506F72D2
:1030EC00740000005743483435343534355453326A
:1030FC00000000007573625F7265630025303278E2
:10310C0020200000434833343120736574206270F2
:10311C00733A25640D0A00007374722025640D0A3D
:10312C00000000005345545F414444524553533A08
:10313C0025640D0A000000004745545F434F4E467E
:10314C00494755524154494F4E0D00005345545F69
:10315C00434F4E46494755524154494F4E0D00007E
:10316C00434C4541525F464541545552450D000074
:10317C004745545F494E544552464143450D000066
:10318C004745545F5354415455530D005345545FB8
:10319C004C494E455F434F44494E470D00000000DB
:1031AC0025303278200000000D00000063746C2084
:1031BC002530327820253032780D0A0043444320E4
:1031CC00526571436F646525780D0A004745545F5D
:1031DC004C494E455F434F44494E473A25640D0ACE
:1031EC00000000004745545F53455249414C5F5322
:1031FC00544154453A25640D0A0000004C494E4593
:10320C005F434F44494E47202564202564202564A4
:10321C002025642025640D0A00000000737461727F
:10322C007400000046E8FFFF6EE8FFFF96E8FFFF22
:10323C00AEE8FFFFC8E8FFFF000000000000000040
:10324C000000000000000000000000000000000072
:10325C000000000000000000000000000000000062
:10326C000000000000000000000000000000000052
:10327C000000000000000000000000000000000042
:10328C000000000000000000000000000000000032
:10329C000000000000000000232D302B2000000057
:1032AC00686C4C0065666745464700003031323328
:1032BC003435363738394142434445460000000026
:1032CC003031323334353637383961626364656690
:1032DC0000000000040309047763682E636E00008D
:0C32EC007763682E636E000068400020CD
:1032F8000000000064320000843200004432000004
:1033080000000000000000000000000000000000B5
:1033180000000000000000000000000000000000A5
:103328000000000000000000000000000000000095
:103338000000000000000000000000000000000085
:103348000000000000000000000000000000000075
:083358006840002000000000A5
:00000001FF
